S00D00004C6F6666792E7372656317
S11300000C942A000C9447000C9447000C9447006D
S11300100C9447000C9447000C9447000C94470040
S11300200C9447000C9447000C9447000C94470030
S11300300C9447000C9447000C9447000C94470020
S11300400C9447000C9447000C9447000C94470010
S11300500C94470011241FBECFE5D8E0DEBFCDBF0E
S113006010E0A0E6B0E0E8E2FBE102C005900D92EA
S1130070A039B107D9F710E0A0E9B0E001C01D92A2
S1130080A039B107E1F70E9430080C94920D0C944A
S1130090000040E00E9465000895CF93DF93D82FBD
S11300A0C62F0E94D40181EE94E00197F1F700C0BD
S11300B000008D2F6C2F0E94D401DF91CF91089501
S11300C01ABA17BA14BA11BA0895843409F471C06B
S11300D0853448F4823499F1833408F04DC0813476
S11300E009F083C00FC0823651F1833620F4813683
S11300F009F07BC007C0833609F43EC0843609F09A
S113010074C057C0413069F42AB381E090E0AC0177
S113011002C0440F551F6A95E2F7BA01622B6ABB0D
S113012008952AB381E090E0AC0102C0440F551F4A
S11301306A95E2F7BA01609562236ABB089541307B
S113014069F427B381E090E0AC0102C0440F551F6D
S11301506A95E2F7BA01622B67BB089527B381E081
S113016090E0AC0102C0440F551F6A95E2F7BA0152
S11301706095622367BB0895413069F424B381E03C
S113018090E0AC0102C0440F551F6A95E2F7BA0132
S1130190622B64BB089524B381E090E0AC0102C0FB
S11301A0440F551F6A95E2F7BA016095622364BB58
S11301B00895413069F421B381E090E0AC0102C0BC
S11301C0440F551F6A95E2F7BA01622B61BB08958B
S11301D021B381E090E0AC0102C0440F551F6A9541
S11301E0E2F7BA016095622361BB0895843409F48F
S11301F071C0853448F4823499F1833408F04DC0D9
S1130200813409F083C00FC0823651F1833620F463
S1130210813609F07BC007C0833609F43EC08436BA
S113022009F074C057C0413069F42BB381E090E009
S1130230AC0102C0440F551F6A95E2F7BA01622B64
S11302406BBB08952BB381E090E0AC0102C0440F76
S1130250551F6A95E2F7BA01609562236BBB089556
S1130260413069F428B381E090E0AC0102C0440F4E
S1130270551F6A95E2F7BA01622B68BB089528B34B
S113028081E090E0AC0102C0440F551F6A95E2F78B
S1130290BA016095622368BB0895413069F425B3BF
S11302A081E090E0AC0102C0440F551F6A95E2F76B
S11302B0BA01622B65BB089525B381E090E0AC01DF
S11302C002C0440F551F6A95E2F7BA016095622394
S11302D065BB0895413069F422B381E090E0AC013C
S11302E002C0440F551F6A95E2F7BA01622B62BB44
S11302F0089522B381E090E0AC0102C0440F551F81
S11303006A95E2F7BA016095622362BB089584346A
S113031009F43DC0853440F48234F9F0833450F557
S1130320813409F040C00CC08236B9F0833618F429
S11303308136C9F505C08336E9F08436A1F527C0B6
S11303402BB381E090E0AC0102C0440F551F6A95C5
S1130350E2F7BA0162276BBB089528B381E090E00D
S1130360AC0102C0440F551F6A95E2F7BA01622737
S113037068BB089525B381E090E0AC0102C0440F4E
S1130380551F6A95E2F7BA01622765BB089522B347
S113039081E090E0AC0102C0440F551F6A95E2F77A
S11303A0BA01622762BB0895843409F44EC08534CF
S11303B040F4823431F18334B0F5813409F057C00C
S11303C00EC08236F1F0833620F4813609F04FC036
S11303D006C0833641F1843609F049C036C029B3DA
S11303E081E090E0062E02C0880F991F0A94E2F77C
S11303F030E08223932302C0959587956A95E2F7AE
S1130400089526B381E090E0062E02C0880F991F5C
S11304100A94E2F730E08223932302C095958795EE
S11304206A95E2F7089523B381E090E0062E02C0B6
S1130430880F991F0A94E2F730E08223932302C0C5
S1130440959587956A95E2F7089520B381E090E049
S1130450062E02C0880F991F0A94E2F730E0822327
S1130460932302C0959587956A95E2F7089580E0F5
S11304700895843409F47AC0853448F48234B1F19F
S1130480833408F053C0813409F08FC00FC0823622
S113049069F1833620F4813609F087C007C08336BA
S11304A009F444C0843609F080C060C0413081F44E
S11304B02BB381E090E0AC0102C0440F551F6A9554
S11304C0E2F7BA01622B6BBB80B78B7F80BF0895C4
S11304D02BB381E090E0AC0102C0440F551F6A9534
S11304E0E2F7BA01609562236BBB0895413081F451
S11304F028B381E090E0AC0102C0440F551F6A9517
S1130500E2F7BA01622B68BB80B78B7F80BF089586
S113051028B381E090E0AC0102C0440F551F6A95F6
S1130520E2F7BA016095622368BB0895413081F413
S113053025B381E090E0AC0102C0440F551F6A95D9
S1130540E2F7BA01622B65BB80B78B7F80BF089549
S113055025B381E090E0AC0102C0440F551F6A95B9
S1130560E2F7BA016095622365BB0895413081F4D6
S113057022B381E090E0AC0102C0440F551F6A959C
S1130580E2F7BA01622B62BB80B78B7F80BF08950C
S113059022B381E090E0AC0102C0440F551F6A957C
S11305A0E2F7BA016095622362BB08958434D9F0FE
S11305B0853438F4823499F0833498F48134A1F486
S11305C00CC0823661F0833618F4813669F405C0B4
S11305D0833639F0843641F406C06ABB089567BB9C
S11305E0089564BB089561BB08958434D9F08534BB
S11305F038F4823499F0833498F48134A1F40CC033
S1130600823661F0833618F4813669F405C0833686
S113061039F0843641F406C06BBB089568BB089575
S113062065BB089562BB0895843409F1853438F4B8
S11306308234A9F08334B8F48134E1F40CC08236F6
S113064071F0833618F48136A9F405C0833659F065
S1130650843681F40CC08BB380958BBB089588B32A
S1130660809588BB089585B3809585BB089582B332
S1130670809582BB0895CF93DF930F92CDB7DEB7F9
S113068019828434F1F0853438F48234A1F083344F
S1130690A8F48134C1F40CC0823669F0833618F4AE
S11306A0813689F405C0833649F0843661F409C083
S11306B089B3898308C086B3898305C083B38983DA
S11306C002C080B3898389810F90DF91CF9108950F
S11306D0CF93C82F613099F464E041E00E94650033
S11306E08C2F65E041E00E9465008C2F66E041E0BC
S11306F00E9465008C2F67E041E00E946500CF9165
S113070008956295607F843451F1853438F48234DD
S1130710C1F08334E8F4813441F50CC0823689F0A9
S1130720833618F4813609F505C0833689F084369A
S1130730E1F415C08BB38F708BBB8BB3682B6BBB91
S1130740089588B38F7088BB88B3682B68BB0895FD
S113075085B38F7085BB85B3682B65BB089582B361
S11307608F7082BB82B3682B62BB0895CF93C82F6E
S1130770613099F460E041E00E9465008C2F61E0F3
S113078041E00E9465008C2F62E041E00E94650018
S11307908C2F63E041E00E946500CF9108956F7053
S11307A0843451F1853438F48234C1F08334E8F46C
S11307B0813441F50CC0823689F0833618F48136D1
S11307C009F505C0833689F08436E1F415C08BB38E
S11307D0807F8BBB8BB3682B6BBB089588B3807F02
S11307E088BB88B3682B68BB089585B3807F85BBBD
S11307F085B3682B65BB089582B3807F82BB82B3C7
S1130800682B62BB0895CF93C82F6FE00E94D60275
S11308108C2F64E041E00E9439028C2F65E041E0B6
S11308200E9439028C2F66E041E00E9439028C2F2D
S113083067E041E00E943902CF910895FF920F933F
S11308401F93CF93DF93CDB7DEB760970FB6F894BD
S1130850DEBF0FBECDBF082FDE011196E0E6F0E04B
S113086080E101900D928150E1F7FF24802F60E038
S113087041E00E94F600802F61E041E00E94F60012
S1130880802F62E041E00E94F600802F63E041E0A7
S11308900E94F600802F6F2D40E00E94F60010E0C9
S11308A0612F6C5F802F0E94D401882361F4EF2DA7
S11308B0F0E0EE0FFF1FEE0FFF1FE10FF11DEC0F35
S11308C0FD1F818104C01F5F143051F70CC0609676
S11308D00FB6F894DEBF0FBECDBFDF91CF911F914D
S11308E00F91FF900895F39484E0F81609F0BECFB9
S11308F08FEFEDCFCF93DF93D82FC62F41E00E9427
S1130900F6008FE99FE00197F1F700C000008D2FFA
S11309106C2F40E00E94F600DF91CF910895AF92D2
S1130920CF92EF920F93CF93DF93C42FD22F8130C6
S113093071F4842F6E2D0E94F5028D2F602F40E0FC
S11309400E94F6008C2D6A2D0E947A0447C0613003
S113095019F56E2D62956F70842F0E9481038D2F7F
S1130960602F40E00E94F6008C2D6A2D0E947A04CC
S11309708C2F6E2D0E9481038D2F602F40E00E94EA
S1130980F6008C2D6A2D0E947A048FEC97E0019773
S1130990F1F700C0000022C06E2D62956F70842FA5
S11309A00E94CF038D2F602F40E00E94F6008C2D13
S11309B06A2D0E947A048C2F6E2D0E94CF038D2FF6
S11309C0602F40E00E94F6008C2D6A2D0E947A046C
S11309D08FEC97E00197F1F700C00000DF91CF9111
S11309E00F91EF90CF90AF9008957F928F929F9246
S11309F0AF92BF92CF92DF92EF92FF920F931F9329
S1130A00CF93DF93CDB7DEB7182FF62E742E922E28
S1130A108FEF91EEA4E081509040A040E1F700C038
S1130A200000822F602F41E00E9465008E2D6C2D06
S1130A3041E00E9465008A2D682D41E00E94650016
S1130A40113009F050C0872D6FEF0E94D6028E2D11
S1130A506C2D40E00E94F600AFE2B5E71197F1F784
S1130A6000C0000081E06F2D472D292D0F2EF8E3E3
S1130A70EF2EF02DCA2CA82C0E948F048FEC97E047
S1130A800197F1F700C0000081E06F2D472D292D5B
S1130A900F2EFEE0EF2EF02D0E948F04AFECB7E096
S1130AA01197F1F700C0000081E06F2D472D292D2B
S1130AB0EE24E3940E948F048FE19EE40197F1F702
S1130AC000C0000081E06F2D472D292D0F2EF6E088
S1130AD0EF2EF02D0E948F04AFECB7E01197F1F7E1
S1130AE000C00000B5C0B1E0FB1609F059C0872D65
S1130AF061E00E9468038E2D6C2D40E00E94F60098
S1130B00812F61E0472D292DEE246894E1F8CA2C49
S1130B10A82C0E948F048FE295E70197F1F700C09B
S1130B200000812F61E0472D292D0F2EF8E2EF2ED2
S1130B30F02D0E948F04AFECB7E01197F1F700C0DD
S1130B400000812F61E0472D292D0F2EFEE0EF2EAE
S1130B50F02D0E948F048FEC97E00197F1F700C00D
S1130B600000812F61E0472D292DEE24E3940E949B
S1130B708F04AFE1BEE41197F1F700C00000812FAC
S1130B8061E0472D292D0F2EF6E0EF2EF02D0E9467
S1130B908F048FEC97E00197F1F700C0000058C074
S1130BA0872D61E00E94B6038E2D6C2D40E00E94DB
S1130BB0F600812F6F2D472D292DEE246894E1F83E
S1130BC0CA2CA82C0E948F04AFE2B5E71197F1F765
S1130BD000C00000812F6F2D472D292D0F2EF8E224
S1130BE0EF2EF02D0E948F048FEC97E00197F1F720
S1130BF000C00000812F6F2D472D292D0F2EFEE000
S1130C00EF2EF02D0E948F04AFECB7E01197F1F7AF
S1130C1000C00000812F6F2D472D292DEE24E39471
S1130C200E948F048FE19EE40197F1F700C0000059
S1130C30812F6F2D472D292D0F2EF6E0EF2EF02D4D
S1130C400E948F04AFECB7E01197F1F700C00000E9
S1130C50DF91CF911F910F91FF90EF90DF90CF9094
S1130C60BF90AF909F908F907F900895AF92CF9256
S1130C70EF920F939E2DAC2CEE24E394C92E0E9488
S1130C808F048FE19EE40197F1F700C000000F91FB
S1130C90EF90CF90AF9008958F92AF92CF92EF9252
S1130CA00F93CF93DF93CDB7DEB73E2D9C2D7A2DD6
S1130CB07150733088F470E1781580F0882081F0E9
S1130CC071E0A71619F4582D51580BC072E0A716FD
S1130CD041F4582D515405C050E803C050E801C0F8
S1130CE050E8E52EC32EA92E0E948F048FEC97E0C6
S1130CF00197F1F700C00000DF91CF910F91EF90C1
S1130D00CF90AF908F900895AF92CF92EF920F93C0
S1130D10CF93DF93C42FD22F8130A1F4842F6A2D77
S1130D200E94F5028D2F602F41E00E94F6008E2D67
S1130D306C2D0E947A048FEC97E00197F1F700C0C4
S1130D40000047C0613019F56A2D62956F70842FD9
S1130D500E9481038D2F602F41E00E94F6008E2DAA
S1130D606C2D0E947A048C2F6A2D0E9481038D2F92
S1130D70602F41E00E94F6008E2D6C2D0E947A04B3
S1130D808FEC97E00197F1F700C0000022C06A2DB4
S1130D9062956F70842F0E94CF038D2F602F41E0E6
S1130DA00E94F6008E2D6C2D0E947A048C2F6A2DE1
S1130DB00E94CF038D2F602F41E00E94F6008E2DFC
S1130DC06C2D0E947A048FEC97E00197F1F700C034
S1130DD00000DF91CF910F91EF90CF90AF900895E5
S1130DE06F927F928F929F92AF92BF92CF92DF9237
S1130DF0EF92FF920F931F93CF93DF93682E762E7B
S1130E00842E922ED02EFE2C1C2DE501A880AA2023
S1130E1069F02196862D672D482D292D0D2DEF2C57
S1130E20C12E0E948406A990AA20A1F7DF91CF9138
S1130E301F910F91FF90EF90DF90CF90BF90AF90F4
S1130E409F908F907F906F9008957F928F929F9242
S1130E50AF92BF92CF92DF92EF92FF920F931F93C4
S1130E60CF93DF93CDB7DEB727970FB6F894DEBFE5
S1130E700FBECDBF182FF62ED42E722ED501C4016D
S1130E802DB73EB7285030400FB6F8943EBF0FBE82
S1130E902DBF4DB75EB74F5F5F4F5E010894A11C35
S1130EA0B11CEDB7FEB7B282A18220E730E0FA01AF
S1130EB03383228384839583A683B7830E94BB0AEA
S1130EC02DB73EB7285F3F4F0FB6F8943EBF0FBE15
S1130ED02DBF812F6F2D4D2D272D0E94F0062796B3
S1130EE00FB6F894DEBF0FBECDBFDF91CF911F9137
S1130EF00F91FF90EF90DF90CF90BF90AF909F90B5
S1130F008F907F9008952F923F924F925F926F92AD
S1130F107F929F92AF92BF92CF92DF92EF92FF9215
S1130F200F931F93CF93DF93CDB7DEB762970FB6BE
S1130F30F894DEBF0FBECDBF182FF62ED42E922EFE
S1130F402EA13FA148A559A56AA57BA58CA59DA561
S1130F5099232CF0E5E7F0E0FA8BE98B04C0E3E792
S1130F60F0E0FA8BE98B0E9478092B013C01E894AC
S1130F7077F8C301B2010E9447092DB73EB72E503E
S1130F8030400FB6F8943EBF0FBE2DBFADB6BEB60F
S1130F900894A11CB11C1E010894211C311CEDB73E
S1130FA0FEB73282218226E730E0F50133832283C3
S1130FB029893A8935832483668377838087918757
S1130FC00E947E099B01AC01C301B2010E94E208A8
S1130FD020E030E44CE156E40E94580A0E9447099C
S1130FE0DC01CB01F50182879387A487B5870E9432
S1130FF0BB0A2DB73EB7225F3F4F0FB6F8943EBFF2
S11310000FBE2DBF812F6F2D4D2D292D51010E9413
S1131010F00662960FB6F894DEBF0FBECDBFDF9127
S1131020CF911F910F91FF90EF90DF90CF90BF90E1
S1131030AF909F907F906F905F904F903F902F90D4
S1131040089541E00E946500089541E00E94F60081
S1131050089540E00E94F60008950E9487010895D3
S113106084E60E94030481E061E041E622E600E0B8
S11310700F2EF2E6EF2EF02DCC246894C1F80F2E3B
S1131080F2E6AF2EF02D0F2EF3E08F2EF02D0E94FE
S1131090F50484E60E941E04982FCFEF04C084E672
S11310A00E941E04982F9F3FD1F3913489F481E06C
S11310B061E041E622E600E00F2EF2E6EF2EF02D8D
S11310C00F2EF3E0CF2EF02D0E9436069C2FEBCF8F
S11310D081E061E041E622E600E00F2EF2E6EF2E29
S11310E0F02D0F2EF3E0CF2EF02DA92E0E948406B2
S11310F08FEF94E3ACE081509040A040E1F700C052
S113110000009C2FD0CF882371F4442329F4862F28
S113111061E00E94B6030895413059F4862F61E0DE
S11311200E9468030895813021F4862F61E00E94B3
S1131130D6020895CF93DF93CDB7DEB760970FB68D
S1131140F894DEBF0FBECDBF882371F4442329F485
S1131150862F622F0E94CF032CC0413051F5862F79
S1131160622F0E94810325C0813019F5DE01179694
S1131170E0E8F0E08AE001900D928150E1F7DE01B1
S11311801196EAE8F0E086E001900D928150E1F7D3
S11311902A3040F4FE01E20FF11D862F67810E9480
S11311A0F50207C0FE01E20FF11D862F61810E9446
S11311B0F50260960FB6F894DEBF0FBECDBFDF9187
S11311C0CF9108955058BB27AA270ED037C128D1F4
S11311D030F02DD120F031F49F3F11F41EF40DC1F5
S11311E00EF4E095E7FB03C1E92F39D180F3BA1778
S11311F0620773078407950718F071F49EF551C1CF
S11312000EF4E0950B2EBA2FA02D0B01B90190011D
S11312100C01CA01A0011124FF27591B99F0593F61
S113122050F4503E68F11A16F040A22F232F342FA9
S11312304427585FF3CF469537952795A795F040F7
S11312405395C9F77EF41F16BA0B620B730B840B0C
S1131250BAF09150A1F0FF0FBB1F661F771F881FC4
S1131260C2F70EC0BA0F621F731F841F48F487951C
S113127077956795B795F7959E3F08F0B3CF93950B
S1131280880F08F09927EE0F97958795089504D055
S11312906894B11107C10895EAD088F09F5790F07F
S11312A0B92F9927B751A0F0D1F0660F771F881F87
S11312B0991F1AF0BA95C9F712C0B13081F0F1D074
S11312C0B1E00895EEC0672F782F8827B85F39F012
S11312D0B93FCCF3869577956795B395D9F73EF4E6
S11312E090958095709561957F4F8F4F9F4F08958E
S11312F097FB0EF485D03EC0E89409C097FB3EF4FA
S113130090958095709561957F4F8F4F9F4F99234E
S1131310A9F0F92F96E9BB279395F69587957795CC
S11313206795B795F111F8CFFAF4BB0F11F460FF8C
S11313301BC06F5F7F4F8F4F9F4F16C0882311F0E4
S113134096E911C0772321F09EE8872F762F05C0F8
S1131350662371F096E8862F70E060E02AF09A9593
S1131360660F771F881FDAF7880F9695879597F988
S11313700895E894F92F96EBFF2381F012161306D3
S11313801406440B9395F69587957795679557952D
S11313904040FF23B9F71BC099270895882351F4CF
S11313A09850D2F7872B762F652F542F432F322F47
S11313B020E0B1F3121613061406440B88233AF006
S11313C09A95440F551F661F771F881FCAF7552328
S11313D04AF4440F551F11F460FF04C06F5F7F4F40
S11313E08F4F9F4F880F9695879597F9089597F992
S11313F09F6780E870E060E008959FEF80EC0895B7
S1131400909580957095609550954095309521956F
S11314103F4F4F4F5F4F6F4F7F4F8F4F9F4F0895F9
S113142000240A94161617061806090608950024BF
S11314300A9412161306140605060895092E039439
S1131440000C11F4882352F0BB0F40F4BF2B11F4AD
S113145060FF04C06F5F7F4F8F4F9F4F089557FD0C
S11314609058440F551F59F05F3F71F04795880F0E
S113147097FB991F61F09F3F79F0879508951216A5
S113148013061406551FF2CF4695F1DF08C0161651
S113149017061806991FF1CF869571056105089402
S11314A00895E894BB2766277727CB0197F9089519
S11314B00BD0C4CFB5DF28F0BADF18F0952309F0BC
S11314C096CF9BCF1124EECFCADFA0F3959FD1F323
S11314D0950F50E0551F629FF001729FBB27F00DDE
S11314E0B11D639FAA27F00DB11DAA1F649F662733
S11314F0B00DA11D661F829F2227B00DA11D621F82
S1131500739FB00DA11D621F839FA00D611D221F3B
S1131510749F3327A00D611D231F849F600D211D1F
S1131520822F762F6A2F11249F5750408AF0E1F0C2
S113153088234AF0EE0FFF1FBB1F661F771F881F0B
S113154091505040A9F79E3F510570F050CFAACF5B
S11315505F3FECF3983EDCF3869577956795B795F6
S1131560F795E7959F5FC1F7FE2B880F911D969520
S1131570879597F90895AEE0B0E0E1ECFAE00C94B9
S1131580690D0D891E8986E08C831A8309838FEF88
S11315909FE79E838D83AE01475E5F4FCE01019628
S11315A06F89788D0E94DD0AEF81F885E00FF11FC5
S11315B010822E96E4E00C94850DADE0B0E0E3EEED
S11315C0FAE00C945B0D3C017D876C875A01FC01A9
S11315D017821682838181FFC8C12E010894411CA1
S11315E0511CF3019381EC85FD8593FD859193FF57
S11315F08191FD87EC87882309F4B3C1853241F4D6
S113160093FD859193FF8191FD87EC87853229F4C1
S113161090E0B3010E94D10CE4CFFF24EE2410E04B
S11316201032B0F48B3269F08C3228F4803251F0ED
S1131630833271F40BC08D3239F0803349F4116078
S11316402CC01260146029C0186027C0106125C026
S113165017FD2EC0282F20532A3098F416FF08C0F7
S11316608F2D880FF82EFF0CFF0CF80EF20E15C00C
S11316708E2D880FE82EEE0CEE0CE80EE20E1062B2
S11316800CC08E3221F416FD6CC1106406C08C3679
S113169011F4106802C0883659F4EC85FD8593FD79
S11316A0859193FF8191FD87EC87882309F0B8CF5A
S11316B0982F9554933018F09052933038F424E0D6
S11316C030E0A20EB31E3FE339830FC0833631F0FE
S11316D0833781F0833509F05AC022C0F501808137
S11316E0898322E030E0A20EB31E21E0C22ED12C69
S11316F0420114C092E0292E312C2A0C3B1CF50126
S11317008080918016FF03C06F2D70E002C06FEFE0
S11317107FEFC4010E94C60C6C0151011F7715C0F4
S113172082E0282E312C2A0C3B1CF501808091800C
S113173016FF03C06F2D70E002C06FEF7FEFC4018E
S11317400E94BB0C6C011068510113FD1CC006C043
S113175080E290E0B3010E94D10CEA948E2D90E0D7
S1131760C816D906A8F30FC0F40117FD859117FF19
S113177081914F0190E0B3010E94D10CE110EA94F1
S11317800894C108D108C114D10471F7E7C08436A4
S113179011F0893651F5F50117FF07C08081918159
S11317A0A281B38124E030E008C080819181AA271E
S11317B097FDA095BA2F22E030E0A20EB31E012FB0
S11317C00F76B7FF08C0B095A095909581959F4F6F
S11317D0AF4FBF4F0068BC01CD01A2012AE030E049
S11317E00E94FD0CD82ED4183FC0853721F41F7EEB
S11317F02AE030E020C0197F8F36A9F0803720F42A
S1131800883509F0AEC00BC0803721F0883709F065
S1131810A8C001C0106114FF09C0146007C014FF00
S113182008C0166006C028E030E005C020E130E0C2
S113183002C020E132E0F50117FF07C06081718129
S11318408281938144E050E006C06081718180E030
S113185090E042E050E0A40EB51EA2010E94FD0CEF
S1131860D82ED418012F0F7706FF09C00E7FDF147E
S113187030F404FF06C002FD04C00F7E02C01D2D1B
S113188001C01F2D802F90E004FF0CC0FE01ED0D60
S1131890F11D2081203311F4097E09C002FF06C026
S11318A01E5F05C086789070009709F01F5F802E38
S11318B0992403FD12C000FF0DC0FD2C1E1550F429
S11318C0FE0CF11A1E2D06C080E290E0B3010E94C6
S11318D0D10C1F5F1E15C0F304C01E1510F4E11ACD
S11318E001C0EE2484FE0FC080E390E0B3010E94A7
S11318F0D10C82FE1FC081FE03C088E590E010C0B9
S113190088E790E00DC0C40186789070009791F04C
S113191081FC02C080E201C08BE207FD8DE290E011
S1131920B3010E94D10C06C080E390E0B3010E9491
S1131930D10CFA94DF14C0F3DA94F201ED0DF11D29
S1131940808190E0B3010E94D10CDD20A9F706C08C
S113195080E290E0B3010E94D10CEA94EE20C1F73A
S113196040CEF3018681978102C08FEF9FEF2D96C1
S1131970E2E10C94770DFC01059061507040011078
S1131980D8F7809590958E0F9F1F0895FC016150A4
S1131990704001900110D8F7809590958E0F9F1F8D
S11319A008950F931F93CF93DF938C01EB018B81E9
S11319B081FF1BC082FF0DC02E813F818C819D81E0
S11319C02817390764F4E881F9810193F983E883DE
S11319D006C0E885F985802F0995009731F48E813A
S11319E09F8101969F838E8302C00FEF1FEFC80172
S11319F0DF91CF911F910F910895FA01AA27283002
S1131A0051F1203181F1E8946F936E7F6E5F7F4FC7
S1131A108F4F9F4FAF4FB1E03ED0B4E03CD0670F43
S1131A20781F891F9A1FA11D680F791F8A1F911D96
S1131A30A11D6A0F711D811D911DA11D20D009F4E6
S1131A4068943F912AE0269F11243019305D319328
S1131A50DEF6CF010895462F4770405D4193B3E011
S1131A600FD0C9F7F6CF462F4F70405D4A3318F0B8
S1131A70495D31FD4052419302D0A9F7EACFB4E069
S1131A80A6959795879577956795BA95C9F7009721
S1131A906105710508959B01AC010A2E06945795C2
S1131AA0479537952795BA95C9F7620F731F841F19
S1131AB0951FA01D08952F923F924F925F926F92AF
S1131AC07F928F929F92AF92BF92CF92DF92EF92CA
S1131AD0FF920F931F93CF93DF93CDB7DEB7CA1B4B
S1131AE0DB0B0FB6F894DEBF0FBECDBF09942A8876
S1131AF0398848885F846E847D848C849B84AA841E
S1131B00B984C884DF80EE80FD800C811B81AA81AA
S1131B10B981CE0FD11D0FB6F894DEBF0FBECDBF75
S10B1B20ED010895F894FFCFD4
S1131B283738392F3435362A3132332D41303D2B6D
S1131B382564002D0000257325642E2530346400A7
S1131B483F065B4F666D7D077F6F771F395E79713E
S9030000FC
